{
  "abi": [
    {
      "inputs": [
        {
          "internalType": "bytes",
          "name": "unmeta",
          "type": "bytes"
        }
      ],
      "name": "NotRainMetaV1",
      "type": "error"
    },
    {
      "anonymous": false,
      "inputs": [
        {
          "indexed": false,
          "internalType": "address",
          "name": "sender",
          "type": "address"
        },
        {
          "indexed": false,
          "internalType": "uint256",
          "name": "subject",
          "type": "uint256"
        },
        {
          "indexed": false,
          "internalType": "bytes",
          "name": "meta",
          "type": "bytes"
        }
      ],
      "name": "MetaV1",
      "type": "event"
    },
    {
      "inputs": [
        {
          "internalType": "uint256",
          "name": "subject_",
          "type": "uint256"
        },
        {
          "internalType": "bytes",
          "name": "meta_",
          "type": "bytes"
        }
      ],
      "name": "emitMeta",
      "outputs": [],
      "stateMutability": "nonpayable",
      "type": "function"
    }
  ],
  "bytecode": {
    "object": "0x608060405234801561001057600080fd5b506102d2806100206000396000f3fe608060405234801561001057600080fd5b506004361061002b5760003560e01c8063d284820b14610030575b600080fd5b61004361003e366004610143565b610045565b005b61008482828080601f0160208091040260200160405190810160405280939291908181526020018383808284376000920191909152506100c692505050565b7fbea766d03fa1efd3f81cc8634d08320bc62bb0ed9234ac59bbaafa5893fb6b13338484846040516100b994939291906101bf565b60405180910390a1505050565b6100cf81610113565b61011057806040517f644cc2580000000000000000000000000000000000000000000000000000000081526004016101079190610230565b60405180910390fd5b50565b600060088251101561012757506000919050565b506008015167ffffffffffffffff1667ff0a89c674ee78741490565b60008060006040848603121561015857600080fd5b83359250602084013567ffffffffffffffff8082111561017757600080fd5b818601915086601f83011261018b57600080fd5b81358181111561019a57600080fd5b8760208285010111156101ac57600080fd5b6020830194508093505050509250925092565b73ffffffffffffffffffffffffffffffffffffffff8516815283602082015260606040820152816060820152818360808301376000818301608090810191909152601f9092017fffffffffffffffffffffffffffffffffffffffffffffffffffffffffffffffe01601019392505050565b600060208083528351808285015260005b8181101561025d57858101830151858201604001528201610241565b5060006040828601015260407fffffffffffffffffffffffffffffffffffffffffffffffffffffffffffffffe0601f830116850101925050509291505056fea2646970667358221220fbba711ba387eb433fda4804ab202a6b0c86146891fbccdd1bca32783dd76b1664736f6c63430008120033",
    "linkReferences": {}
  },
  "methodIdentifiers": {
    "emitMeta(uint256,bytes)": "d284820b"
  },
  "id": 28
}