{"abi":[{"type":"function","name":"emitMeta","inputs":[{"name":"subject","type":"uint256","internalType":"uint256"},{"name":"meta","type":"bytes","internalType":"bytes"}],"outputs":[],"stateMutability":"nonpayable"},{"type":"function","name":"hash","inputs":[{"name":"data","type":"bytes","internalType":"bytes"}],"outputs":[{"name":"","type":"bytes32","internalType":"bytes32"}],"stateMutability":"pure"},{"type":"event","name":"MetaV1","inputs":[{"name":"sender","type":"address","indexed":false,"internalType":"address"},{"name":"subject","type":"uint256","indexed":false,"internalType":"uint256"},{"name":"meta","type":"bytes","indexed":false,"internalType":"bytes"}],"anonymous":false},{"type":"error","name":"NotRainMetaV1","inputs":[{"name":"unmeta","type":"bytes","internalType":"bytes"}]}],"bytecode":{"object":"0x608060405234801561001057600080fd5b50610359806100206000396000f3fe608060405234801561001057600080fd5b50600436106100365760003560e01c8063aa1e84de1461003b578063d284820b14610060575b600080fd5b61004e6100493660046101de565b610075565b60405190815260200160405180910390f35b61007361006e366004610220565b610097565b005b6000828260405161008792919061026c565b6040518091039020905092915050565b6100d682828080601f01602080910402602001604051908101604052809392919081815260200183838082843760009201919091525061011892505050565b7fbea766d03fa1efd3f81cc8634d08320bc62bb0ed9234ac59bbaafa5893fb6b133384848460405161010b949392919061027c565b60405180910390a1505050565b61012181610165565b61016257806040517f644cc25800000000000000000000000000000000000000000000000000000000815260040161015991906102ed565b60405180910390fd5b50565b600060088251101561017957506000919050565b506008015167ffffffffffffffff1667ff0a89c674ee78741490565b60008083601f8401126101a757600080fd5b50813567ffffffffffffffff8111156101bf57600080fd5b6020830191508360208285010111156101d757600080fd5b9250929050565b600080602083850312156101f157600080fd5b823567ffffffffffffffff81111561020857600080fd5b61021485828601610195565b90969095509350505050565b60008060006040848603121561023557600080fd5b83359250602084013567ffffffffffffffff81111561025357600080fd5b61025f86828701610195565b9497909650939450505050565b8183823760009101908152919050565b73ffffffffffffffffffffffffffffffffffffffff8516815283602082015260606040820152816060820152818360808301376000818301608090810191909152601f9092017fffffffffffffffffffffffffffffffffffffffffffffffffffffffffffffffe01601019392505050565b600060208083528351808285015260005b8181101561031a578581018301518582016040015282016102fe565b5060006040828601015260407fffffffffffffffffffffffffffffffffffffffffffffffffffffffffffffffe0601f830116850101925050509291505056","linkReferences":{}},"methodIdentifiers":{"emitMeta(uint256,bytes)":"d284820b","hash(bytes)":"aa1e84de"},"id":19}